:400000000010002011000000310600003106000008B500F027FBC04638B51F4C23688022D20213432360182000F012FC22681B4B134023601A4A1B4B1A6020221A4B1A60A9
:4000400010321A4B1A60203A194B1A600132194B1A601032184B1A6082221206174B1A6000252560164A174B1A60174A174B1A60174A184B1A60184A184B1A60184A194BF9
:400080001A600920184900F089FB092000F070FB164B1D6038BDC04600010B40FFFFFBFF0600008004010B40080202400C0202401C020240200202403002024008010B4029
:4000C00003000080000002400E00008040000240100000808000024017000080040002401F03008044000240610A00000C020B4010B572B6002410E0384863001A195200A7
:40010000821891881B195B001A5AC31858880004104300F009FB0134E4B2012CECD92F49081C0C302C3100F0E5FA2D4A2D4B1A60C02292002C4B1A60EE2212022B4B1A6060
:40014000EE222B4B1A6099231B042A4A136080214902294A1160294A1360C0218903284A1160284A1360284A1360284A284B1A60284B197802220A431A70274802783C2149
:400180008A4328390A430270197816220A431A702322224B1A60224A224B1A602022224B1A601C3A214B1A60214A224B1A602123214A13608021C902204A1160204A136036
:4001C000204A214B1A600322204B1A602132204B1A60FFF721FF00F0BDFA10BD283400000300990000000140040001400C0001401000014000500F4008500F4010500F40D2
:4002000018500F4020500F4030500F40188808002001054000700F4001700F40000004403E100300080004401800044000010440C0001800080104400002044008020440B1
:4002400018020440800D180008030440000404400804044010B5064C2378002B07D1054B002B02D0044800E000BF0123237010BD50020020000000000C33000008B5084B62
:40028000002B03D00748084900E000BF07480368002B00D108BD064B002BFBD09847F9E7000000000C33000054020020C80000200000000008B5431EFD2B04D8C0B200F05F
:4002C00021FC012001E00120404208BD10B5041C431EFD2B06D800F077FDE0B200F02AFD012001E00120404210BDC04608B5002000F008FC002000F01DFD002008BDC046C0
:40030000F8B501223A4B1A60431D8B4238DD00F06BFD041C00F0FCFB071C201C02F060FB0022344B01F06AFB041C0D1C0022324B01F036FB002805D1201C291C02F01AFB1A
:40034000061C00E0FF26381C02F04AFB0022294B01F054FB041C0D1C0022274B01F020FB002805D1201C291C02F004FB041C00E0FF24301CFFF7AAFF201CFFF79BFF35E0AD
:40038000421F8A421DDA00F02FFD041C00F0C0FB201C02F025FB0022184B01F071FF041C0D1C0022164B01F001FB002804D1201C291C02F0DFFA00E00520C0B200F0BAFCDF
:4003C00014E098420EDA90420CDD00F00DFD051C00F09EFB041C281CFFF778FF201CFFF769FF03E0092801DCFFF780FF0020F8BDCC01002000801E4000E06F4000802E40FA
:400400000000244010B5022000F054FD00F014FD184B1860184B98420CD8031CE83B392B08D93A2101F02AF9124B5860134800F0F5FD0DE0031CE83B392B02D90E4B98424A
:4004400006D900220B4B5A600C48103000F0E6FD0B4C0C482060074B5A680B4902F04EFB206800F0DBFD094800F0D8FD642000F0CDF910BD6C0200209F5A0000CC00002056
:40048000B4020020B8020020103300001433000008B562B600F0FEFC0C4800F037FD0C4B1B68012B0ED1322000F0B0F9012000F0A1FC0A2000F0C2F9002000F09BFC0022AF
:4004C000034B1A60034B586808BDC04605040000CC0100206C02002008B50248042100F073FE08BDCC02002010B5041C00F052FE10280DD100F082FE002303E0064AD25C68
:40050000E25401338342F9DB00F07EFE00F082FE00F046FE10BDC046CC02002030B583B062B600F09DFD00F0D1FB00F0DFFB00F00FFDFFF7D1FF364C00232370201CFFF77B
:40054000D3FFFFF7A5FF019023783E33DAB2392AF1D893002F4AD3589F46E1222C4B5A602D4800F05BFDE6E7E222294B5A602A481C3000F053FDDEE72748343000F04EFDDD
:4005800001983221FFF7BCFED5E72348503000F045FD01983221FFF7B3FECCE71E48703000F03CFD01983221FFF7AAFEC3E71B480C3000F033FDFFF799FEBCE7174830306F
:4005C00000F02CFD124C227A01235A402272144D14482860144902F091FA286800F01EFD237A002B0DD00A4B5B68E22BA3D0E12BA1D10122064B5A720848443000F00EFD22
:4006000099E7FFF773FE094800F008FD93E7C046740200201C330000EC0000206C010020D8020020E0020020083400000C340000FEE7C04608B5031C084A1068C318084A59
:400640009A1A802A02DC054A136005E002F022FA0C2303600120404208BDC046D00100203003002070B50F4E0F4D13E029686B68AC68002202E001C901C30432A242FAD185
:40068000E868002202E0002102C304328242FAD11035013E002EE9D102F002FAFFF73EFFFEE7C046010000000436000008B500230AE0032B03D89A000A49505800E00A48EE
:4006C00099000A4A885001332F2BF2D9FFF710FD0022074B1A608022D205116801230B43136008BD000000003106000000000020C0000020F0B50025002711E0BB00C6585D
:40070000F3B2FF22964308E06A008A181478A419527822700135013BDBB2002BF4D10137072FEBD9F0BDC04608B50A1C002102F0DDF908BD064B1B68002803D08022120693
:40074000134301E05B005B08014A13607047C04680031A4008B52123034A1360034A13600120FFF7E7FF08BD00031A4040031A401F2318401E3B8340181C014B186070478A
:4007800000E100E01F2318401E3B8340181C014B1860704780E100E001BE704738B5041C0D1C1F2802D90020FFF7F6FFA400034B9C4664442068256038BDC0464000002015
:4007C00070B5041C0E1E032E02D90020FFF7E4FF1F2C02D90020FFF7DFFF03252540ED00063500F027FDA408A400074B9C46644423680322AA409343AE40351C1D432560E0
:4008000000F01CFD70BDC04600E400E010B5041C06E0084B186800F003FD074B9C46644480231B029C42F4D8024B5868604300F0F7FC10BDD40100200080FFFF08B5034B06
:400840001B7A584300F0ECFC08BDC046D4010020F0B557464E46C0B483B0041C00F0EAFC0190E71E2D2F74D83F4B1B78DBB2A34208D33E4B1B78DBB29A463D4B1B78DBB264
:40088000994631E03B4B1B78DBB2A34208D33A4B1B78DBB29A46394B1B78DBB2994623E0374B1B78DBB2A34208D3364B1B78DBB29A46354B1B78DBB2994615E0334B1B786F
:4008C000DBB2A34208D3324B1B78DBB29A46314B1B78DBB2994607E02F4B1B78DBB29A462E4B1B78DBB299462D4BDE5D2F2E09D92A2C07D919222B4B1A60052000F090FCE6
:40090000192503E0274B1D683F231D40AE4206D2234BDA5D234B1A60052000F081FC1F4B9C4664442378DBB21F4A13601F4B52461A601F4B4A461A600520FFF77FFFAE4288
:400940000AD9174BDA5D174B1A60052000F068FC02E00020FFF720FF019800F06FFC03B00CBC91469A46F0BDC0F1FF0FC1F1FF0FC2F1FF0FC3F1FF0FC4F1FF0FC5F1FF0F33
:40098000C6F1FF0FC7F1FF0FC8F1FF0FC9F1FF0FCAF1FF0FCBF1FF0FCCF1FF0FCDF1FF0F6C3500002CFF0B4028FF0B401CFF0B4020FF0B40034B1868C0231B02184000D0A4
:4009C0000120704700010B4008B500F033FC044A1368C02109020B43136000F02FFC08BD00010B4010B500F025FC08490A68084B1A408024E40122430A600A681340802250
:400A0000120213430B6000F019FC10BD00010B40FF3FFFFF70B5061C00F00CFC041CFFF7C9FF002803D0FFF7DDFF012500E000250848331C0340084A1068084908401843D2
:400A400010601368012D01D1FFF7BEFF201C00F0F5FB70BD0404040010020B40FBFBFBFF10B5244B1B685B0715D5234B1B685B070ED5224B9969042001401F4C22688A4367
:400A800022609A6982439A61DB68002B00D098470420FFF7BFFF174B1B685B0518D5164B1B685B0510D5154B99698022D2001140114802688A4302609969114A0A409A61E6
:400AC0001B69002B00D098478020C000FFF7A2FF084B1B685B030CD5074B1B685B0304D5064B5B69002B00D098478020C002FFF791FF10BD10020B40E401002084020020D4
:400B0000FFFBFFFF014B18707047C04622000F40014B1878C0B2704722000F4010B50E200321FFF74DFE0E204249FFF737FE0322414B1A60414B1B68002B01DA404900E060
:400B40004049414A13680B431360404A404B1A60404A414B1A600023404A1360404A41490A6041490A60414A116880204002014311603F490A6802430A603E4A13603E4AAD
:400B8000136001333D4A136002213D4A11603D4908683D4A024013430B60002447E03B49A2005058DC239B0103400919097A0B4337498C4662441360C30708D52D49086817
:400BC00080225202131CA3401B0C03430B60A3002E4A9B589B0708D52749086880225202131CA3401B0C03430B60A300274A9B589A0502D58020400001E080204001DB05C9
:400C000004D463000021234A995203E063000021204A9952204B5843204B9C466044204900F0BCFD00B2A2001E4BD0500134012CB5D910BD010D000020001A4080031A403C
:400C4000702010107020001000001A408C00008004001A400000FF0718001A401C001A400400040010001A4014001A4000031A4040031A4028021A4038021A4018021A400C
:400C8000000F1A4030001A40FFFFFFDF9C35000080001A400003002010270000E40C0000C8190000F802002008B5074B1B68002B08DB054A1368802109060B4313600A2070
:400CC000FFF7BCFD08BDC04600001A4008B5064B1B78002B04D1FFF721FF0122024B1A70FFF7E2FF08BDC046A0020020034A1368802149020B4313607047C04604001A407B
:400D0000014B1A681A60704710021A40024A117880230B431370704773000F40014B18707047C04603000F40014B18707047C04643000F40014B18707047C04623000F407D
:400D4000014B18707047C04683000F40014B1878C0B2704763000F40014B1878C0B2704753000F4008B501E0FFF7F6FFFFF7EEFFC306F9D408BDC04610B511490B783F22E2
:400D80009343363A13430B700E4C2278012313432370FF20FFF7C2FFFF20FFF7C5FF7F20FFF7C8FF0020FFF7CBFF00F043FA227810231343237000F041FAFFF7D3FF10BD8D
:400DC00073000F4093000F4008B5064B1B78002B04D1FFF7D1FF0122024B1A70FFF796FF08BDC046A1020020014B1878C0B2704723000F4004490A68BF231A4080017F3B28
:400E000018401043086070470003044008B500F011FA044A116801230B43136000F00EFA08BDC046000005400004000C014B18607047C04608010540024B18680004000C79
:400E40007047C046080105400004000C014B18607047C04614010540014B18607047C0463801054008B581229204074B1A604D22064B1A600220FFF7EFFF0548FFF7E4FF55
:400E80000020FFF7D1FF08BD0001054024010540FFFF000008B5064B1B78002B04D1FFF7E1FF0122024B1A70FFF7B0FF08BDC046A2020020014B18607047C046300105403D
:400EC0008023014AD05070470000002010B5041C00F0B0F9044A1368C0218B43A4011C43146000F0ABF910BD10E400E080225202014B1A607047C04600E100E0802252023A
:400F0000014B1A607047C04680E100E010B5041CFFF7F4FF201CFFF7D3FF0320FFF7D6FFFFF7E4FF10BDC04608B500F069F808BD08B500F01DF808BD08B5044A1368802100
:400F400009060B431360FFF7EFFF08BD0000074008B5064B1B78002B04D1FFF7E9FF0122024B1A70FFF7E8FF08BDC046A302002010B5124A124B1A600023124A13600121BF
:400F8000114A1160114A12480260072411480460114803601148016011490A60114A1360114A1360114A1360114A1360114A1360114A1360114A136010BDC0460B000002AA
:400FC00000000740400007404800074007000080000307400403074010030740440007400002074004020740880E0740C80E0740480F0740080F0740C80F0740880F074008
:40100000044A1168044B0B40902109040B4313607047C04600000140FFFF0FFF38B5051C002402E000F010F90134285D0028F9D138BDC04608B50A20FFF79AFB08BDC046D5
:4010400008B500F03BF808BD08B5044A1368802109060B431360FFF7EDFF08BD0000064008B5064B1B78002B04D1FFF7E9FF0122024B1A70FFF7E8FF08BDC046A402002000
:401080000A4B1B68DB050DD5094B1B685B0409D4064B1968074A0A401A601A68802149000A431A600222044B1A6070470000064060000640FFFEFFFF6C00064010B51E4AFF
:4010C00011680C230B43136000241C4B1C601C4A1C4B1A601C4B1D4A13601D4A14601D491D4A11601D4A13601D4B1C600A20FFF749FB0A200321FFF763FB0A201949FFF799
:401100004DFB194B1C60194B1C604C22FF32184B1A60184B1C60184B1C60184B1C603C3AFF3A174B1A70174B1C70174B1C60174B1C60174B1C7010BD700006400000064092
:401140007708004060000640070100800003064004030640E000FE0010030640000206400402064065120000C80E0640880E0640480F0640080F0640C80F0640880F0640BE
:40118000040300200D030020080300201C0300200C030020014B1878C0B270470D03002010B50A20FFF7EEFA064A14780F231C4013780D218B4313700A20FFF7D9FA201C9A
:4011C00010BDC0460D03002038B500280ED00D1C041C0A20FFF7D6FA054B1C60054B1D600022054B1A600A20FFF7C2FA38BDC04620030020100300201C030020014B1868E3
:401200007047C0461C0300200022014B1A607047080300200022014B1A6070471C0300200230800804D0C0460138FDD1C046C046C0467047EFF3108072B6704780F310884A
:401240007047C046C046C046044B1B680F221340082BF9D0024B18607047C046080207404002074010B5C04B1B68002B00D09847BE4B1B68DB0702D50022BD4B1A60BD4BD9
:401280001B789B061FD4BC4B1A680223FF331A4219D0B84B1B78DB0709D5B84B1A7802218A431A70197809220A431A7008E0B34B1A7820218A431A70197890220A431A70C0
:4012C0000022AC4B1A70AB4B1B789B0600D5B6E1A84B1B78DB0600D48AE1A74B1B689B073ED50222A64B1A60A64A13680F211940136880221202134000D00123CB18A24A1B
:401300001278D2B29A4205D99C4A117804230B43137006E09C4A12789B1A9C490A68D31A0B609A4B1A689A4B1A600023994A1360954A1370984B1A68802149020A431A600B
:401340001968964A0A401A608C4B1A7802218A431A70197801220A431A701022854B1A70854B1B681B0737D50822854B1A608C4B1B689B040CD414E08A4B1A688A490968F1
:401380008A188A490968C9B211701A6801321A60874B1B681B07EFD1814A1168854B0B401360854B1B689B0604D5744A117840230B4313700022814B1A60814A7E4B1A6055
:4013C0006E4B1A7820218A431A70197810220A431A70684B10221A70674B1B685B0641D50122784B1A60784B1B68DB060FD50F32684B1A60664B1A68644B1A605F4A1178EE
:4014000002230B43137012225A4B1A7024E06F4B1B68644A12689B1A072B03D80422674B1A6011E0082B06D15D4A1368A02109020B43136008E05A4A1368802189010B43AC
:40144000136008225D4B1A604C4A117820230B4313701122474B1A705D4A494B1A6001225C4B1A605C4B1B681B072AD5574B1B684C4A1068181A0838082802D900240820EB
:401480000EE001240CE0474B1A68474909688A1846490968C9B211701A6801321A6001380028F0D1002C08D03D4A1368802109020B4313600022414B1A6008223E4B1A6061
:4014C00023E0454B1B685B071FD5384B1B68354A11683E4A126891420DD201213D4A1160304A1168304800684118DBB20B7013680133136006E0FFF7C3FD204A117840236C
:401500000B43137004222C4B1A60344B1B68DB061FD494E01D4B1A68314B1B689A420CD21A4B1A682F4909688A181278D2B22E490A601A6801321A600BE0FF222A4B1A604B
:40154000114B1B789B0604D40F4A13780133DBB213700C4B1B680F221340082BDAD10132224B1A606BE0C046A80200208C0E0640880E0640040300204C0F06400D030020B6
:40158000400F0640080206400C0300201803002008030020880F064004020640FFFFFEFF600006401C030020200300204003064008030640FF5FFFFFC00F0640C80F0640FD
:4015C000ED0F0000800E06406400064010030020FF0F00006C000640CC0F06408C0F0640240300201403002040020640800F0640134A13685B005B0813601021114B197082
:40160000114B1868114901401960186810490140196000230F490B600F490B600F49104B19601049104B19601049114B19601149114B19601368802109060B43136010BD0F
:40164000000006400403002060000640FF5FFFFFFFFCFFFFC80F0640880F0640ED0F0000800F0640F3070000C00F0640FF0F0000400F064017030000000F064000224308A9
:401680008B4274D303098B425FD3030A8B4244D3030B8B4228D3030C8B420DD3FF22090212BA030C8B4202D31212090265D0030B8B4219D300E0090AC30B8B4201D3CB0384
:4016C000C01A5241830B8B4201D38B03C01A5241430B8B4201D34B03C01A5241030B8B4201D30B03C01A5241C30A8B4201D3CB02C01A5241830A8B4201D38B02C01A5241AF
:40170000430A8B4201D34B02C01A5241030A8B4201D30B02C01A5241CDD2C3098B4201D3CB01C01A524183098B4201D38B01C01A524143098B4201D34B01C01A52410309BC
:401740008B4201D30B01C01A5241C3088B4201D3CB00C01A524183088B4201D38B00C01A524143088B4201D34B00C01A5241411A00D20146524110467047FFE701B5002013
:4017800000F0FCF802BDC0460029F7D003B5FFF775FF0EBC4243891A1847C04603460B437FD4002243088B4274D303098B425FD3030A8B4244D3030B8B4228D3030C8B42FE
:4017C0000DD3FF22090212BA030C8B4202D31212090265D0030B8B4219D300E0090AC30B8B4201D3CB03C01A5241830B8B4201D38B03C01A5241430B8B4201D34B03C01A57
:401800005241030B8B4201D30B03C01A5241C30A8B4201D3CB02C01A5241830A8B4201D38B02C01A5241430A8B4201D34B02C01A5241030A8B4201D30B02C01A5241CDD2AC
:40184000C3098B4201D3CB01C01A524183098B4201D38B01C01A524143098B4201D34B01C01A524103098B4201D30B01C01A5241C3088B4201D3CB00C01A524183088B42D4
:4018800001D38B00C01A524143088B4201D34B00C01A5241411A00D201465241104670475DE0CA0F00D04942031000D34042534000229C4603098B422DD3030A8B4212D39C
:4018C000FC22890112BA030A8B420CD3890192118B4208D3890192118B4204D389013AD0921100E08909C3098B4201D3CB01C01A524183098B4201D38B01C01A5241430954
:401900008B4201D34B01C01A524103098B4201D30B01C01A5241C3088B4201D3CB00C01A524183088B4201D38B00C01A5241D9D243088B4201D34B00C01A5241411A00D2E3
:401940000146634652415B10104601D34042002B00D54942704763465B1000D3404201B5002000F00BF802BD0029F8D003B5FFF715FF0EBC4243891A1847C0467047C046D3
:401980008446101C62468C46191C634600E0C0461FB500F00FFC002801D40021C8421FBD10B500F053FB4042013010BD10B500F001FC002801DB002010BD012010BDC04606
:4019C00010B500F0F7FB002801DD002010BD012010BDC04610B500F07DFB002801DC002010BD012010BDC04610B500F073FB002801DA002010BD012010BDC046F0B545460F
:401A000057464E4694464C000A03C90FE0B488460E1C1903470FC500480A6146490F01436046520A1743C0005A00640D520DDB0F8446984500D1A7E0A01A002800DC01E143
:401A4000002A3DD163460B4300D0D4E06B0700D188E00F232B40042B00D183E02A1DAA42AD4180236D427F191B043B404646151C002B00D17CE0CC4B01349C4200D1FDE076
:401A80003A1CCA4BED081A405007640552020543120B640D002112030B0D1B056405120B1A436308C24CF60714401C43640064083443281C211C1CBC90469946A246F0BD1E
:401AC000B94B9C42C2D080231B041943382800DDECE01F2800DD21E120220E1C6346121A9640C340334366469640321C561EB24113430A1CC240EB1A9D42B6411D1CBA1AF8
:401B00007642971B3B0200D497E07A02560A002E00D1B6E0301C00F09FFF031C083B1F2B00DDB7E09E40371C28262A1C361AF240161C9D403E439C4200DDB2E01C1B621C6F
:401B40001F2A00DDD8E01F23291C1C1B331CA540A340D1406C1EA541D64019430D43371C002473E780231B043B40464600D082E78D4BED0878070543FA089C4232D0120311
:401B80006405120B640D85E7A31A002B00DC94E0002A3CD0844A944200D157E7802212041143382B00DC05E163461943481E81410022C8B24019A8429B41051CD2195B42DF
:401BC000D7183B0239D5784B01349C4200D14CE10120764A6B083A4028401843D5070543570833E72B1C134348D080231B031A431203120B4EE70138002878D16346EE1A14
:401C0000B5429B417A1A5B42D71A351C7AE7021C0A4300D11AE7013B002B00D0F2E04019A8429B41CA195B42D718051CC9E7131C334300D118E1171C351C46466B0700D097
:401C400007E795E700287AD1621C5205520D012A00DCFBE06246AA1A9542B6419146781A7242861A320200D493E06246551BAC458041CF1B40423E1A984648E7002200251D
:401C800008E7281C00F0E8FE2030031C083B1F2B00DC47E7283885402E1C00259C4200DC4CE7424AE41A1640371CCFE6634619434B1E99410022CBB21DE7002B00D0F2E0F4
:401CC000601C43055B0D012B00DCA4E0364B984200D121E163465C19AC429B41CF195B42FA186408D50725435708041CAEE62E4B9C4200D0EAE6A9E6211C331C1F39CB4047
:401D0000191C202A00D182E03F231C1BA64035436E1EB54100270D4300248EE7031C0E1C203BDE40202874D040231B1A99400B1C62461343591E8B4100223343DBE6002CBC
:401D400050D0194CA24200D1A8E08024240440422743382800DDD9E01F2800DD39E120243E1C241AA640B0462E1CA146C640444626434C46A5406C1EA541C74035436046C7
:401D8000451BCF1BAC45894149427F1A141C9846B8E64B464D46334300D0B8E60026002700240025E4E6C046FF070000FFFF7FFFFFFF0F801F2B5BDC2022081CD21A90402E
:401DC000814660469246D8404A4610438146524660469040021C501E8241484610430A1CDA40E7E63C1C2C4358D0C043002851D16046451BAC458041CF1B40423F1A141CA8
:401E000098467FE68F4A944200D0CAE61EE600267DE700238CE73B1C2B43002C00D0BDE0002B00D1F5E063460B4300D10EE663465B19AB428041CA19404217183A0200D4B2
:401E4000FCE0814A1D1C17400134FFE53A1C2A43002C51D1002A00D085E062460A4303D00F1C65469846F1E50026002700257FE6181C0A1C2038C240202B00D1A7E04020C2
:401E8000C01A8140081C63461843411E8841104300228FE66B4CA24200D05AE70F1C6546141C9846D2E5002C3AD1381C284371D0DB43002B18D0634882426BD0382B00DDB4
:401EC0009DE01F2B00DDA7E020203C1CC01A8440A1462C1C8246DC404846044350468540681E8541DF402543654465459B417F185B42FF18141C64E6002A19D162460A436E
:401F000077D00F1C654698464E4C9FE53D436F1EBD410027EDB232E7041C0027002527E64848824236D0802000045B420743C5E762460A4349D08024ED087807FA08240345
:401F40002843224209D0CE08264206D162464F07381CD20810439846321CD200470F1743C500384C72E562460A4300D16EE56246AE1AB5429241781A5242821A100200D4DC
:401F800055E66246551BAC458041CA1B4042171A98465BE50F1C6546141C57E5002B34D063460B4311D08024ED087807FA08240328432242D1D0CB082342CED162464F0797
:401FC000381CD20810431A1CC7E71E4C3EE5002059E7041C3E1C203CE640341C20282BD04026301A87403D436F1EBD4100272543C5E680270026FF03124C0025B8E53D43D5
:402000006F1EBD410027EDB26EE70F1C65460D4C1CE50F1C654619E51C1C381C203CE040041C202B0CD04020C31A9F403D436F1EBD410027254357E70027D4E71D1CFCE5B7
:402040000027F3E7FF070000FFFF7FFFF0B55F464D4644465646F0B41F035C00DB0F99461B4B0E034D00C90F8446360B6D0D8B4690463F0B640D9D420CD0154B9C4210D093
:402080000123A54214D0181C3CBC90469946A246AB46F0BD311C01230143F4D10C4B9C42EED13A430123002AEDD10123A542EAD1BE42E8D1C445E6D1CB4506D0002DE2D1CE
:4020C0003043031C581E8341DDE70023DBE7C046FF070000F0B5574645464E46E0B40F034E00C90F8A4632491D035C0084463F0B760D90462D0B640DDB0F8E420FD08C42EE
:4021000039D0002E10D13843414241418946002C27D12A4325D1002000290ED108E0391C01432ED1B44226D0002C0BD09A450DD05346594201231943081C1CBC90469946F5
:40214000A246F0BD2A43F3D09A45F1D1A642EFDC1ADA504641424841012341421943081CEBE74A46002AE1D058425841012241421143081CE1E7291C114302D1002EC2D007
:40218000D4E702204042D8E7AF42D1D809D00020AF42D2D2504641424841012340421843CBE7C445C4D80020C445F3D3C5E7C046FF070000F0B55F464D464446564680466F
:4021C000F0B4061C0803000B84462C484C001F035D00C90F640D8B4691463F0B6D0DDB0F844212D0854225D0002C14D161460E4370424641002D35D0002E21D05842584131
:40220000012143420B43181C0EE06146022031430AD1A5420ED0002D12D13A4310D15B46594201231943081C3CBC90469946A246AB46F0BD391C02201143F5D1002CD5D0C7
:402240009B45ECD1AC42EADC05DBBC45E7D80FD00020BC45E8D2584641424841414201200843E1E73A43C7D10020002EDCD1D6E7C845D4D80020C845EDD3D5E7FF0700001D
:40228000F0B54D4644465F465646F0B40E1C111C3203520A470F1743C5001A035800DB0F9946520A4B0F83B01A43CB000193CF4B7400F60F640DB046400D984200D1E8E07D
:4022C0000123494659400B1C9E4200D1B1E0261A002E00DC1CE1002842D1131C01990B4300D0E6E06B0700D18EE00F232B40042B00D189E02A1DAA42AD41802301264146D1
:402300006D427F191B043B400E40151C002B00D183E0B64B01349C4200D116E13A1CB44BED081A405007640552020543120B640D002112030B0D1B056405120B1A436308B8
:40234000AC4CF60714401C43640064083443281C211C03B03CBC90469946A246AB46F0BDA24B9C42BED080231B041A43382E00DD03E11F2E00DD3FE12020831B9946131C32
:4023800049468B409C46019B6046F34003430198F2408840011C481E81410B43EB1A9D4280411D1CBA1A4042171A3B0200D4A8E07A02560A002E00D1CAE0301C00F04CFBFA
:4023C000031C083B1F2B00DDCBE02822291C121AD1409E400A1C9D4032439C4200DDC8E01C1B671C1F2F00DDEDE01F23291C1C1B131CA540A340F9406C1EA541FA4019437E
:402400000D43171C00246DE78023012642461B043B401640002B00D07BE7744BED0878070543FA089C423BD012036405120B640D7EE7231A9A46002B00DCA5E0002844D046
:402440006A48844200D14DE78020000402435346382B00DC1CE1019B1A43511E8A41D1B200224919A94280410D1CD219404217183B0246D55D4B01349C4200D169E1012027
:402480005B4A6B083A4028401843D5070543570828E7131C01990B4300D111E74B4613E72B1C134351D080231B031A431203120B3EE7013E002E00D080E0691A8D429B41CC
:4024C000BA1A5B42D71A0D1C6FE7101C019B184300D107E701235B429C46E2445346002B00D002E1019BD2195919A9429B415B42D7180D1CBCE76346034300D128E1071CD5
:4025000065466B0700D0F0E6012643461E4084E7002E00D081E0601C4005400D012800DC07E10199681A84466545B641B81A7642861B300200D4A1E08C464D1BAC458941D7
:40254000D21B4942561A984634E700220025EFE6281C00F081FA2030031C083B1F2B00DC33E7021C283A95402A1C00259C4200DC36E71F4FE41A1740B4E6019B1A43511E61
:402580008A41D3B2002209E7002B00D001E1601C43055B0D012B00DCB0E0144B984200D11EE1019BD2195919A9429B415B42D2184908D5070D435708041C93E60B4B9C421F
:4025C00000D0D3E68EE6211C131C1F39CB40191C202F00D18EE03F231C1BA24015436A1E954100270D4300248BE7C046FF070000FFFF7FFFFFFF0F80331C101C203BD8400B
:40260000202E79D040239B1B9A40131C019A1343591E8B4100220343C0E6002C53D0C74CA04200D1B0E0802471428946240427434946382900DDCDE01F2900DD59E1202425
:402640003E1C611A8E408A46B04649462E1CCE405146B4468D4064464646494626436C1EA541CF4035430199D71B8C464D1BAC4592415242BF1A041C984696E663466546C2
:40268000334300D096E60026002700240025C4E61F2B61DC2020C31A9B46131C59468B4051469946019BCB409C464B46604603439C465B46019999406346481E814119435B
:4026C0005346DA40CDE63C1C2C435DD0F1438946002955D10199D21B8C464D1BAC4589414942571A041C98465FE69448844200D0ADE6F7E5002271E7002387E73B1C2B43C2
:40270000002C00D0DAE0002B00D113E1131C01990B4300D1E6E54919A9429B41D2195B42D7183B0200D421E1854B0D1C1F40041CD8E5381C2843002C40D1002800D083E001
:40274000101C0199084303D0171C0D1C9846C9E500260027002560E65046131C2038C340181C5346202B00D1C1E0402351465B1A9A40019911434A1E91410022014370E6FE
:402780006E4CA04200D053E7171C019D041C9846A8E5002C28D13C1C2C4300D18AE0DB439A46002B00D082E0019BD2199C4665449D42894149425718041C59E600285BD12D
:4027C000101C0199084300D1A4E0171C0D1C98465A4C87E53D436F1EBD410027EDB242E7041C0027002518E6544CA04262D0534680245B429A46240427435346382B00DDEA
:402800008EE01F2B00DD9DE02024E31A9B463B1C59468B40514699462B1CCB409C464B46644623439C465B469D4063466C1EA541CF401D43019BBF189C4665449D429241C0
:402840005242BF18041C13E6101C0199084300D148E5681A844685428041BE1A4042301A060200D447E68C464D1BAC458941D21B4942571A984635E5101C0199084334D059
:4028800080247807ED08FF0824032843274208D0D608264205D1C90852070A43101C371C9846FF00420F1743C500244C1AE5234CA042A2D1171C019D041C13E5002B35D07B
:4028C000131C01990B4310D080247807ED08FF08240328432742E4D0D3082342E1D1C90852070A43101C1F1CDBE7144CFAE400223FE74C463E1C203CE6404946341C202965
:4029000032D04026761AB7403D436F1EBD4100272543A8E680270026FF03084C00257CE53D436F1EBD410027EDB283E7171C019D024CD7E4171C019DD4E4C046FF0700002D
:40294000FFFF7FFF54463B1C203CE3401C1C5346202B0DD0402351465B1A9F403D436F1EBD410027254365E70027CDE70D1CC8E50027F3E70B0330B5134C1A0B4B00051CA9
:402980005B0DC90F0020A34210DD104883420EDC80200F4C40030243E41A1F2C0ADD0D48C31ADA40131C48424340581830BD0A4BC818FBE7281CE040084CA44663449A400C
:4029C000131C0343EFE7C046FE0300001D0400003304000013040000FFFFFF7FEDFBFFFF38B5041E16D0C50F00D04442201C00F033F8174B1B1A0A2821DC021C211C1532D6
:402A000091400A1C0B21081AC4405B052403240B5B0D03E000250023002400220021101C24030A0D1205240B14430A4A1B0514401C436400ED0764082C43211C38BD0B38C7
:402A400084405B052403240B5B0D0022E6E7C0461E040000FFFF0F801C2101231B04984201D3000C10391B0A984201D3000A08391B09984201D30009043902A2105C4018AF
:402A80007047C04604030202010101010000000000000000014B18687047C046480200200E4B70B500251E1C0D4CE41AA410A54204D0AB00F35898470135F8E700F090FD4D
:402AC000084B00251E1C084CE41AA410A54204D0AB00F35898470135F8E770BDEC350000EC350000EC350000F4350000031C8218934202D019700133FAE770470EB410B584
:402B00009DB002A9029008610B48822488604861012040421FABC881084804CBA400006801938C8100F06CF80023029A13701DB010BC08BC03B01847FFFFFF7F48020020AB
:402B4000F0B58E6885B0071C0C1C03920193B34245D390238A89DB001A423DD003250969236801985B1A029363695D43EB0F5D19029B6D1001331B189D4200D21D1C381C97
:402B800053050FD5291C00F025FB061E13D0029A216900F0BCFAA289184B134080221343A38111E02A1C00F06DFB061E0CD1381C216900F0C9FA0C23402201203B60A3891A
:402BC00040421343A38117E0029B2661F61826606561019EED1AA560019BB34200D2019E321C2068039900F09BFA0020A3689B1BA36023689E19266005B0F0BD7FFBFFFF3A
:402C0000F0B59FB0029005938B890E1C171C1B0610D50B69002B0DD1402100F0DBFA30603061002804D10C23029A01381360D0E040237361002306AD6B6120336B761033C7
:402C4000AB763C1C2378002B03D1E31B049312D003E0252BF9D00134F4E7049B0298311C3A1CFFF76DFF431C00D1ACE06A69049B944663446B612378002B00D1A3E00122C8
:402C8000002352426A6002A95432521801342B60EB60AB601370AB654F4F2178381C052200F02AFA002808D0C01B01278740381C2B68013418432860EEE72B68DA0604D59F
:402CC0005322202102A8121811701A0704D553222B2102A81218117022782A2A01D0099B0EE0059A111D12680591002A01DB099204E05242EA60022213432B60013409E005
:402D00002278303A092A04D80A214B4301349B18F6E7099323782E2B18D163782A2B09D1059B02341A1D1B680592002B0DDA01235B420AE0002301342278303A092A04D830
:402D40000A214B4301349B18F6E70793234F2178381C032200F0D0F9002807D0C01B40278740381C2B6801341843286021781C480622671C297600F0BFF9002812D0194B9A
:402D8000002B06D10722059B073393430833059314E005AB00930298291C321C124B00E000BF07E005AB00930298291C321C0E4B00F08AF80390039B013304D06B69039A39
:402DC0009B186B613DE7B3890B985B0601D5012040421FB0F0BDC046AA350000B0350000B435000000000000412B0000F7B5171C01930A698B6800900C1C934200DA131C6D
:402E0000221C3B6043321278002A01D001333B6023689B0602D53B6802333B60062523681D401ED0231C43331B785A1E9341226892061CD53020E1184031C870211C5A1C2D
:402E400045310978A21840320233D1700FE0221C0123009801991932089EB047431C0ED00135E3683A689B1A9D42F0DBDAE7221C009801994332089DA847431C02D1012002
:402E8000404220E006232068E1683A6803400025042B03D18D1AEB43DB171D40A3682269934201DD9B1AED180027AF420ADA221C0123009801991A32089EB047431CDED0DC
:402EC0000137F2E70020FEBDF0B58BB006920A1C43320793059004920A7E0C1C109B6E2A00D1A8E011D8632A22D009D8002A00D1B2E0582A00D0C2E045310A707C4A4FE013
:402F0000642A1DD0692A1BD0B9E0732A00D1A7E009D86F2A29D0702A00D0B0E0202209680A43226037E0752A1FD0782A33D0A6E00E1C1A684236111D196013683370A1E0E1
:402F400021681A68080606D4490604D5111D19600023D55E02E0111D19601568002D3BDA2D23049A6D42137036E021681A68080606D4490604D51568111D1960ADB202E03B
:402F8000111D196015685A4B227E03930A276F2A1DD108271BE0221C782145321170554A19680392081D226818600D68100602D4500600D5ADB2D30702D520231A432260C7
:402FC0001027002D03D1202322689A432260231C002243331A7002E00A27454B03936368A360002B03DB0422216891432160002D02D1049E002B0ED0049E281C391CFEF71D
:40300000C3FB039B013E5B5C281C3370391CFEF735FB051EF1D1082F09D12368DB0706D563682269934202DC3023013E3370049B9B1B23612BE009681A68080607D4490652
:4030400005D5111D19601368A28A1A8004E0111D1960136862691A600023049E236116E01A68111D196016680021301C626800F043F8002801D0801B6060636803E0261CB7
:4030800042363270012323610023049A1370079B05980093211C069B09AAFFF7A7FE431C02D10120404221E0236905980699321C079DA847431CF4D023689B0705D4099BC0
:4030C000E068984212DA181C10E00025E368099A9B1A9D42F3DA221C0123059806991932079EB047431CDCD00135EFE70BB0F0BDBB350000CC350000C9B28218904204D07A
:4031000003788B4202D00130F8E700207047002310B5934203D0CC5CC4540133F9E710BD10B5814208D28B18984205D29B1A013A09D3995C8154FAE70023934203D0CC5CBD
:40314000C4540133F9E710BD30B500293ED004390B68002B00DAC9181D4A1368141C002B02D14B60116031E099420DD208680A189A4203D11368C3180B6053684B602160C3
:4031800024E08A4203D8131C5A68002AF9D11D685C198C420BD10968691858181960904214D110685268091819605A600EE08C4202D90C23036009E008680C18944203D173
:4031C00014685268001908604A60596030BDC046B0020020032370B5CC1C9C430834051C0C2C01D20C2405E0002C03DA0C2300202B6042E08C42F9D3204A1368101C191C7C
:40320000002913D00A68121B0DD40B2A02D90A608B181FE08B4202D15A6802601BE04A685A600B1C17E00B1C4968E9E7144E3368002B03D1281C00F04BF83060281C211C71
:4032400000F046F8031C421CD0D00322C61C964386420AD11C60181C07210B301A1D8843821A0AD05142995007E0311A281C00F02FF8431CBAD0331CECE770BDB0020020E2
:40328000AC020020F8B5061C0C1C151C002904D1111CFFF79FFF041C18E0002A03D1FFF753FF2C1C12E000F025F8A8420ED2301C291CFFF78FFF071E07D0211C2A1CFFF760
:4032C00026FF301C211CFFF73FFF3C1C201CF8BD38B50023064C051C081C2360FDF7AAF9431C03D12368002B00D02B6038BDC046280300200B1F1A68101F002A04DA8918D4
:4033000004390B68D01804387047000000000000256C750020200A0D202020009C050000AE050000BC050000360500003605000036050000360500003605000036050000CE
:40334000360500003605000036050000360500003605000036050000360500003605000036050000360500003605000036050000360500003605000036050000360500009D
:403380003605000036050000360500003605000036050000360500005A05000068050000360500003605000036050000360500003605000036050000360500003605000007
:4033C0003605000036050000360500003605000036050000360500003605000036050000360500003605000036050000360500003605000036050000360500008A050000C9
:4034000078050000320000002564000048656C6C6F2066726F6D20656C73652073746F70206361720000000000300F40000400400F40000402000F404E320F402C330F40A3
:4034400002400F4006410F4002420F4003430F4002600F40820D830D0A040F0114011A0727012E08300132023408350136043F104020410545D14602480749FF4AFF4BFFED
:403480004DA04F04501852805405580459045A045B045F01604062C06440654066C068C06AC06CC06EC086048701920893019401A607B004B202B301B408B601BF04C020D2
:4034C000C105C5D1C720C823C9FFCAFFCBFFCDA0CF04D018D280D405D804D904DA04DB04DF01E040E2C0E440E540E6C0E8C0EAC0ECC0EEC00004051009020A100E200F08BA
:4035000010201780180419401A901D301E601FA0220427082F20300238043F8040044520482249014F895002574059415A085E405F097102778082408780C044C26CC4847D
:40354000CA40CC01CE12D024D218D6DB5708D440570183088701A708D620E6900810C20278109810DE02010110010000030405060708090A0B0C0E0F101112131415161709
:4035800018191B1C1D1E1F2021222325262728292A2B2E2F30313233343500000000000000000000050000004300232D302B2000686C4C00656667454647003031323334EE
:4035C0003536373839414243444546003031323334353637383961626364656600000000F8B5C046F8BC08BC9E4670477D020000AD060000F8B5C046F8BC08BC9E46704703
:403600005502000018360000C800002088010000E0000000000000000000000048656C6C6F20576F726C64310A0D000048656C6C6F20576F726C64320A0D000048656C6C46
:403640006F2066726F6D20666F6C67206F626A656B74200A0D00000048656C6C6F2066726F6D20666F6C67206C7964200A0D000048656C6C6F2066726F6D206F626A656B46
:4036800074206C6967657564200A0D0048656C6C6F2066726F6D206F626A656B742076656E73747265200A0D0000000048656C6C6F2066726F6D206F626A656B7420686FA2
:4036C0006A7265200A0D000048656C6C6F2066726F6D206F626A656B7420696B6B652066756E646574200A0D0000000048656C6C6F2066726F6D207374617274200A0D00FD
:4037000048656C6C6F2066726F6D20726561644F626A656374200A0D0000000001000000300300200000E02EC05D00001800000000366E010404040000000000000000002F
:40374000000000000000000000000000000000000000000000000000A83500000000000000000000000000000000000000000000000000000000000000000000000000006C
:40378000000000000000000000000000000000000000000000000000E801002000000000000000000000000000000000000000000000000000000000000000000000000000
:4037C00000000000000000000000000000000000000000000000000000000000000000000000000000000000000000000000000000000000000000000000000000000000C9
:403800000000000000000000000000000000000000000000000000000000000000000000000000000000000000000000000000000000000000000000000000000000000088
:403840000000000000000000000000000000000000000000000000000000000000000000000000000000000000000000000000000000000000000000000000000000000048
:403880000000000000000000000000000000000000000000000000000000000000000000000000000000000000000000000000000000000000000000000000000000000008
:0200000490303A
:02000000A2DE7E
:0200000490402A
:200000000000000000000000000000000000000000000000000000000000000000000000E0
:0200000490501A
:0C000000000204C81193110104D9B4716E
:0200000490600A
:0100000001FE
:00000001FF